{
  "contractName": "SimpleBank",
  "abi": [
    {
      "inputs": [],
      "stateMutability": "nonpayable",
      "type": "constructor"
    },
    {
      "anonymous": false,
      "inputs": [
        {
          "indexed": true,
          "internalType": "string",
          "name": "userName",
          "type": "string"
        },
        {
          "indexed": false,
          "internalType": "uint256",
          "name": "amount",
          "type": "uint256"
        }
      ],
      "name": "LogDepositMade",
      "type": "event"
    },
    {
      "anonymous": false,
      "inputs": [
        {
          "indexed": true,
          "internalType": "address",
          "name": "accountAddress",
          "type": "address"
        },
        {
          "indexed": false,
          "internalType": "string",
          "name": "name",
          "type": "string"
        }
      ],
      "name": "LogEnrolled",
      "type": "event"
    },
    {
      "anonymous": false,
      "inputs": [
        {
          "indexed": true,
          "internalType": "string",
          "name": "from",
          "type": "string"
        },
        {
          "indexed": true,
          "internalType": "string",
          "name": "to",
          "type": "string"
        },
        {
          "indexed": false,
          "internalType": "uint256",
          "name": "amount",
          "type": "uint256"
        },
        {
          "indexed": false,
          "internalType": "uint256",
          "name": "timestamp",
          "type": "uint256"
        }
      ],
      "name": "LogTransaction",
      "type": "event"
    },
    {
      "anonymous": false,
      "inputs": [
        {
          "indexed": true,
          "internalType": "string",
          "name": "from",
          "type": "string"
        },
        {
          "indexed": true,
          "internalType": "string",
          "name": "to",
          "type": "string"
        },
        {
          "indexed": false,
          "internalType": "uint256",
          "name": "amount",
          "type": "uint256"
        }
      ],
      "name": "LogTransfer",
      "type": "event"
    },
    {
      "anonymous": false,
      "inputs": [
        {
          "indexed": true,
          "internalType": "string",
          "name": "userName",
          "type": "string"
        }
      ],
      "name": "LogUnenrolled",
      "type": "event"
    },
    {
      "anonymous": false,
      "inputs": [
        {
          "indexed": true,
          "internalType": "string",
          "name": "userName",
          "type": "string"
        },
        {
          "indexed": false,
          "internalType": "uint256",
          "name": "amount",
          "type": "uint256"
        }
      ],
      "name": "LogWithdrawalMade",
      "type": "event"
    },
    {
      "inputs": [],
      "name": "owner",
      "outputs": [
        {
          "internalType": "address",
          "name": "",
          "type": "address"
        }
      ],
      "stateMutability": "view",
      "type": "function",
      "constant": true
    },
    {
      "inputs": [
        {
          "internalType": "address",
          "name": "accountAddress",
          "type": "address"
        },
        {
          "internalType": "string",
          "name": "name",
          "type": "string"
        }
      ],
      "name": "enroll",
      "outputs": [],
      "stateMutability": "nonpayable",
      "type": "function"
    },
    {
      "inputs": [
        {
          "internalType": "string",
          "name": "name",
          "type": "string"
        }
      ],
      "name": "unenroll",
      "outputs": [],
      "stateMutability": "nonpayable",
      "type": "function"
    },
    {
      "inputs": [
        {
          "internalType": "uint256",
          "name": "amount",
          "type": "uint256"
        }
      ],
      "name": "deposit",
      "outputs": [],
      "stateMutability": "nonpayable",
      "type": "function"
    },
    {
      "inputs": [
        {
          "internalType": "uint256",
          "name": "withdrawAmount",
          "type": "uint256"
        }
      ],
      "name": "withdraw",
      "outputs": [],
      "stateMutability": "nonpayable",
      "type": "function"
    },
    {
      "inputs": [
        {
          "internalType": "string",
          "name": "to",
          "type": "string"
        },
        {
          "internalType": "uint256",
          "name": "amount",
          "type": "uint256"
        }
      ],
      "name": "transfer",
      "outputs": [],
      "stateMutability": "nonpayable",
      "type": "function"
    },
    {
      "inputs": [],
      "name": "balanceOf",
      "outputs": [
        {
          "internalType": "uint256",
          "name": "",
          "type": "uint256"
        }
      ],
      "stateMutability": "view",
      "type": "function",
      "constant": true
    },
    {
      "inputs": [],
      "name": "totalBalance",
      "outputs": [
        {
          "internalType": "uint256",
          "name": "",
          "type": "uint256"
        }
      ],
      "stateMutability": "view",
      "type": "function",
      "constant": true
    },
    {
      "inputs": [],
      "name": "getOwner",
      "outputs": [
        {
          "internalType": "address",
          "name": "",
          "type": "address"
        }
      ],
      "stateMutability": "view",
      "type": "function",
      "constant": true
    },
    {
      "inputs": [
        {
          "internalType": "string",
          "name": "userName",
          "type": "string"
        }
      ],
      "name": "isEnrolled",
      "outputs": [
        {
          "internalType": "bool",
          "name": "",
          "type": "bool"
        }
      ],
      "stateMutability": "view",
      "type": "function",
      "constant": true
    },
    {
      "inputs": [
        {
          "internalType": "string",
          "name": "userName",
          "type": "string"
        }
      ],
      "name": "getAddressByName",
      "outputs": [
        {
          "internalType": "address",
          "name": "",
          "type": "address"
        }
      ],
      "stateMutability": "view",
      "type": "function",
      "constant": true
    },
    {
      "inputs": [],
      "name": "getTransactionHistory",
      "outputs": [
        {
          "components": [
            {
              "internalType": "string",
              "name": "from",
              "type": "string"
            },
            {
              "internalType": "string",
              "name": "to",
              "type": "string"
            },
            {
              "internalType": "uint256",
              "name": "amount",
              "type": "uint256"
            },
            {
              "internalType": "uint256",
              "name": "timestamp",
              "type": "uint256"
            }
          ],
          "internalType": "struct SimpleBank.Transaction[]",
          "name": "",
          "type": "tuple[]"
        }
      ],
      "stateMutability": "view",
      "type": "function",
      "constant": true
    }
  ],
  "bytecode": "0x608060405234801561001057600080fd5b5033600460006101000a81548173ffffffffffffffffffffffffffffffffffffffff021916908373ffffffffffffffffffffffffffffffffffffffff16021790555060008060006101000a81548160ff021916908360ff1602179055506127878061007c6000396000f3fe608060405234801561001057600080fd5b50600436106100b45760003560e01c80638da5cb5b116100715780638da5cb5b146101795780639a65ddec14610197578063ad7a672f146101c7578063b6b55f25146101e5578063b76d4fc314610201578063d96a45921461021f576100b4565b806312cb70c7146100b95780632528280a146100d55780632e1a7d4d14610105578063722713f71461012157806378544d681461013f578063893d20e81461015b575b600080fd5b6100d360048036038101906100ce91906119cb565b61023b565b005b6100ef60048036038101906100ea9190611a27565b61063b565b6040516100fc9190611a8b565b60405180910390f35b61011f600480360381019061011a9190611aa6565b6106d4565b005b610129610a84565b6040516101369190611ae2565b60405180910390f35b61015960048036038101906101549190611a27565b610b52565b005b610163610e39565b6040516101709190611b3e565b60405180910390f35b610181610e63565b60405161018e9190611b3e565b60405180910390f35b6101b160048036038101906101ac9190611a27565b610e89565b6040516101be9190611b3e565b60405180910390f35b6101cf610ed1565b6040516101dc9190611ae2565b60405180910390f35b6101ff60048036038101906101fa9190611aa6565b610ed9565b005b610209611170565b6040516102169190611d13565b60405180910390f35b61023960048036038101906102349190611d61565b611307565b005b600460009054906101000a900473ffffffffffffffffffffffffffffffffffffffff1673ffffffffffffffffffffffffffffffffffffffff163373ffffffffffffffffffffffffffffffffffffffff16146102cb576040517f08c379a00000000000000000000000000000000000000000000000000000000081526004016102c290611e40565b60405180910390fd5b6000600160003373ffffffffffffffffffffffffffffffffffffffff1673ffffffffffffffffffffffffffffffffffffffff168152602001908152602001600020600001805461031a90611e8f565b80601f016020809104026020016040519081016040528092919081815260200182805461034690611e8f565b80156103935780601f1061036857610100808354040283529160200191610393565b820191906000526020600020905b81548152906001019060200180831161037657829003601f168201915b505050505090506000339050600073ffffffffffffffffffffffffffffffffffffffff166003856040516103c79190611efc565b908152602001604051809103902060009054906101000a900473ffffffffffffffffffffffffffffffffffffffff1673ffffffffffffffffffffffffffffffffffffffff160361044c576040517f08c379a000000000000000000000000000000000000000000000000000000000815260040161044390611f5f565b60405180910390fd5b600160008273ffffffffffffffffffffffffffffffffffffffff1673ffffffffffffffffffffffffffffffffffffffff168152602001908152602001600020600101548311156104d1576040517f08c379a00000000000000000000000000000000000000000000000000000000081526004016104c890611fcb565b60405180910390fd5b60006003856040516104e39190611efc565b908152602001604051809103902060009054906101000a900473ffffffffffffffffffffffffffffffffffffffff16905083600160008473ffffffffffffffffffffffffffffffffffffffff1673ffffffffffffffffffffffffffffffffffffffff1681526020019081526020016000206001016000828254610566919061201a565b9250508190555083600160008373ffffffffffffffffffffffffffffffffffffffff1673ffffffffffffffffffffffffffffffffffffffff16815260200190815260200160002060010160008282546105bf919061204e565b92505081905550846040516105d49190611efc565b6040518091039020836040516105ea9190611efc565b60405180910390207ffaed26a242319934770dc13f8a94a02f7c44c5d7215d024256778b62a06f99e1866040516106219190611ae2565b60405180910390a36106348386866116da565b5050505050565b60008060038360405161064e9190611efc565b908152602001604051809103902060009054906101000a900473ffffffffffffffffffffffffffffffffffffffff169050600260008273ffffffffffffffffffffffffffffffffffffffff1673ffffffffffffffffffffffffffffffffffffffff16815260200190815260200160002060009054906101000a900460ff16915050919050565b600460009054906101000a900473ffffffffffffffffffffffffffffffffffffffff1673ffffffffffffffffffffffffffffffffffffffff163373ffffffffffffffffffffffffffffffffffffffff1614610764576040517f08c379a000000000000000000000000000000000000000000000000000000000815260040161075b90611e40565b60405180910390fd5b6000600160003373ffffffffffffffffffffffffffffffffffffffff1673ffffffffffffffffffffffffffffffffffffffff16815260200190815260200160002060000180546107b390611e8f565b80601f01602080910402602001604051908101604052809291908181526020018280546107df90611e8f565b801561082c5780601f106108015761010080835404028352916020019161082c565b820191906000526020600020905b81548152906001019060200180831161080f57829003601f168201915b5050505050905060006003826040516108459190611efc565b908152602001604051809103902060009054906101000a900473ffffffffffffffffffffffffffffffffffffffff169050600260008273ffffffffffffffffffffffffffffffffffffffff1673ffffffffffffffffffffffffffffffffffffffff16815260200190815260200160002060009054906101000a900460ff16610902576040517f08c379a00000000000000000000000000000000000000000000000000000000081526004016108f9906120ce565b60405180910390fd5b600160008273ffffffffffffffffffffffffffffffffffffffff1673ffffffffffffffffffffffffffffffffffffffff16815260200190815260200160002060010154831115610987576040517f08c379a000000000000000000000000000000000000000000000000000000000815260040161097e90611fcb565b60405180910390fd5b82600160008373ffffffffffffffffffffffffffffffffffffffff1673ffffffffffffffffffffffffffffffffffffffff16815260200190815260200160002060010160008282546109d9919061201a565b925050819055503373ffffffffffffffffffffffffffffffffffffffff166108fc849081150290604051600060405180830381858888f19350505050158015610a26573d6000803e3d6000fd5b5081604051610a359190611efc565b60405180910390207f0f25b97cd321fe267bdd69f84a26bb3738b7bba204b8ac6d4405109b743294a084604051610a6c9190611ae2565b60405180910390a2610a7f8283856116da565b505050565b6000806003600160003373ffffffffffffffffffffffffffffffffffffffff1673ffffffffffffffffffffffffffffffffffffffff168152602001908152602001600020600001604051610ad89190612186565b908152602001604051809103902060009054906101000a900473ffffffffffffffffffffffffffffffffffffffff169050600160008273ffffffffffffffffffffffffffffffffffffffff1673ffffffffffffffffffffffffffffffffffffffff1681526020019081526020016000206001015491505090565b600460009054906101000a900473ffffffffffffffffffffffffffffffffffffffff1673ffffffffffffffffffffffffffffffffffffffff163373ffffffffffffffffffffffffffffffffffffffff1614610be2576040517f08c379a0000000000000000000000000000000000000000000000000000000008152600401610bd990611e40565b60405180910390fd5b600073ffffffffffffffffffffffffffffffffffffffff16600382604051610c0a9190611efc565b908152602001604051809103902060009054906101000a900473ffffffffffffffffffffffffffffffffffffffff1673ffffffffffffffffffffffffffffffffffffffff1603610c8f576040517f08c379a0000000000000000000000000000000000000000000000000000000008152600401610c869061220f565b60405180910390fd5b6000600382604051610ca19190611efc565b908152602001604051809103902060009054906101000a900473ffffffffffffffffffffffffffffffffffffffff169050600260008273ffffffffffffffffffffffffffffffffffffffff1673ffffffffffffffffffffffffffffffffffffffff16815260200190815260200160002060006101000a81549060ff0219169055600160008273ffffffffffffffffffffffffffffffffffffffff1673ffffffffffffffffffffffffffffffffffffffff16815260200190815260200160002060008082016000610d7191906117de565b60018201600090555050600382604051610d8b9190611efc565b908152602001604051809103902060006101000a81549073ffffffffffffffffffffffffffffffffffffffff021916905560008081819054906101000a900460ff1680929190610dda9061223c565b91906101000a81548160ff021916908360ff1602179055505081604051610e019190611efc565b60405180910390207fe49e9dcf7de2dc381cf6fbaf7a6cf4083a0cb225275693835da93aacdd01e40560405160405180910390a25050565b6000600460009054906101000a900473ffffffffffffffffffffffffffffffffffffffff16905090565b600460009054906101000a900473ffffffffffffffffffffffffffffffffffffffff1681565b6000600382604051610e9b9190611efc565b908152602001604051809103902060009054906101000a900473ffffffffffffffffffffffffffffffffffffffff169050919050565b600047905090565b6000600160003373ffffffffffffffffffffffffffffffffffffffff1673ffffffffffffffffffffffffffffffffffffffff1681526020019081526020016000206000018054610f2890611e8f565b80601f0160208091040260200160405190810160405280929190818152602001828054610f5490611e8f565b8015610fa15780601f10610f7657610100808354040283529160200191610fa1565b820191906000526020600020905b815481529060010190602001808311610f8457829003601f168201915b505050505090506000600382604051610fba9190611efc565b908152602001604051809103902060009054906101000a900473ffffffffffffffffffffffffffffffffffffffff169050600260008273ffffffffffffffffffffffffffffffffffffffff1673ffffffffffffffffffffffffffffffffffffffff16815260200190815260200160002060009054906101000a900460ff16611077576040517f08c379a000000000000000000000000000000000000000000000000000000000815260040161106e906120ce565b60405180910390fd5b600083116110ba576040517f08c379a00000000000000000000000000000000000000000000000000000000081526004016110b1906122d7565b60405180910390fd5b82600160008373ffffffffffffffffffffffffffffffffffffffff1673ffffffffffffffffffffffffffffffffffffffff168152602001908152602001600020600101600082825461110c919061204e565b92505081905550816040516111219190611efc565b60405180910390207fafb7abf74ddfb7079fa43385f43f8f87ce54db14339d4e020da199ffd03981e5846040516111589190611ae2565b60405180910390a261116b8283856116da565b505050565b60606005805480602002602001604051908101604052809291908181526020016000905b828210156112fe57838290600052602060002090600402016040518060800160405290816000820180546111c790611e8f565b80601f01602080910402602001604051908101604052809291908181526020018280546111f390611e8f565b80156112405780601f1061121557610100808354040283529160200191611240565b820191906000526020600020905b81548152906001019060200180831161122357829003601f168201915b5050505050815260200160018201805461125990611e8f565b80601f016020809104026020016040519081016040528092919081815260200182805461128590611e8f565b80156112d25780601f106112a7576101008083540402835291602001916112d2565b820191906000526020600020905b8154815290600101906020018083116112b557829003601f168201915b505050505081526020016002820154815260200160038201548152505081526020019060010190611194565b50505050905090565b600460009054906101000a900473ffffffffffffffffffffffffffffffffffffffff1673ffffffffffffffffffffffffffffffffffffffff163373ffffffffffffffffffffffffffffffffffffffff1614611397576040517f08c379a000000000000000000000000000000000000000000000000000000000815260040161138e90611e40565b60405180910390fd5b600360008054906101000a900460ff1660ff16106113ea576040517f08c379a00000000000000000000000000000000000000000000000000000000081526004016113e190612343565b60405180910390fd5b600260008373ffffffffffffffffffffffffffffffffffffffff1673ffffffffffffffffffffffffffffffffffffffff16815260200190815260200160002060009054906101000a900460ff1615611477576040517f08c379a000000000000000000000000000000000000000000000000000000000815260040161146e906123af565b60405180910390fd5b600073ffffffffffffffffffffffffffffffffffffffff1660038260405161149f9190611efc565b908152602001604051809103902060009054906101000a900473ffffffffffffffffffffffffffffffffffffffff1673ffffffffffffffffffffffffffffffffffffffff1614611524576040517f08c379a000000000000000000000000000000000000000000000000000000000815260040161151b9061241b565b60405180910390fd5b6001600260008473ffffffffffffffffffffffffffffffffffffffff1673ffffffffffffffffffffffffffffffffffffffff16815260200190815260200160002060006101000a81548160ff02191690831515021790555060008081819054906101000a900460ff168092919061159a9061243b565b91906101000a81548160ff021916908360ff1602179055505060405180604001604052808281526020016000815250600160008473ffffffffffffffffffffffffffffffffffffffff1673ffffffffffffffffffffffffffffffffffffffff168152602001908152602001600020600082015181600001908161161d91906125fb565b50602082015181600101559050508160038260405161163c9190611efc565b908152602001604051809103902060006101000a81548173ffffffffffffffffffffffffffffffffffffffff021916908373ffffffffffffffffffffffffffffffffffffffff1602179055508173ffffffffffffffffffffffffffffffffffffffff167f7c3259948a64b5de49c1fcdf96f3fb734ceebc82b3b61cd9f434984979aa3a92826040516116ce9190612706565b60405180910390a25050565b6000429050600060405180608001604052808681526020018581526020018481526020018381525090506005819080600181540180825580915050600190039060005260206000209060040201600090919091909150600082015181600001908161174591906125fb565b50602082015181600101908161175b91906125fb565b5060408201518160020155606082015181600301555050836040516117809190611efc565b6040518091039020856040516117969190611efc565b60405180910390207f827a05403518386489e066271e3195418531129f7b03f82d4b4db6191af0658d85856040516117cf929190612728565b60405180910390a35050505050565b5080546117ea90611e8f565b6000825580601f106117fc575061181b565b601f01602090049060005260206000209081019061181a919061181e565b5b50565b5b8082111561183757600081600090555060010161181f565b5090565b6000604051905090565b600080fd5b600080fd5b600080fd5b600080fd5b6000601f19601f8301169050919050565b7f4e487b7100000000000000000000000000000000000000000000000000000000600052604160045260246000fd5b6118a282611859565b810181811067ffffffffffffffff821117156118c1576118c061186a565b5b80604052505050565b60006118d461183b565b90506118e08282611899565b919050565b600067ffffffffffffffff821115611900576118ff61186a565b5b61190982611859565b9050602081019050919050565b82818337600083830152505050565b6000611938611933846118e5565b6118ca565b90508281526020810184848401111561195457611953611854565b5b61195f848285611916565b509392505050565b600082601f83011261197c5761197b61184f565b5b813561198c848260208601611925565b91505092915050565b6000819050919050565b6119a881611995565b81146119b357600080fd5b50565b6000813590506119c58161199f565b92915050565b600080604083850312156119e2576119e1611845565b5b600083013567ffffffffffffffff811115611a00576119ff61184a565b5b611a0c85828601611967565b9250506020611a1d858286016119b6565b9150509250929050565b600060208284031215611a3d57611a3c611845565b5b600082013567ffffffffffffffff811115611a5b57611a5a61184a565b5b611a6784828501611967565b91505092915050565b60008115159050919050565b611a8581611a70565b82525050565b6000602082019050611aa06000830184611a7c565b92915050565b600060208284031215611abc57611abb611845565b5b6000611aca848285016119b6565b91505092915050565b611adc81611995565b82525050565b6000602082019050611af76000830184611ad3565b92915050565b600073ffffffffffffffffffffffffffffffffffffffff82169050919050565b6000611b2882611afd565b9050919050565b611b3881611b1d565b82525050565b6000602082019050611b536000830184611b2f565b92915050565b600081519050919050565b600082825260208201905092915050565b6000819050602082019050919050565b600081519050919050565b600082825260208201905092915050565b60005b83811015611bbf578082015181840152602081019050611ba4565b60008484015250505050565b6000611bd682611b85565b611be08185611b90565b9350611bf0818560208601611ba1565b611bf981611859565b840191505092915050565b611c0d81611995565b82525050565b60006080830160008301518482036000860152611c308282611bcb565b91505060208301518482036020860152611c4a8282611bcb565b9150506040830151611c5f6040860182611c04565b506060830151611c726060860182611c04565b508091505092915050565b6000611c898383611c13565b905092915050565b6000602082019050919050565b6000611ca982611b59565b611cb38185611b64565b935083602082028501611cc585611b75565b8060005b85811015611d015784840389528151611ce28582611c7d565b9450611ced83611c91565b925060208a01995050600181019050611cc9565b50829750879550505050505092915050565b60006020820190508181036000830152611d2d8184611c9e565b905092915050565b611d3e81611b1d565b8114611d4957600080fd5b50565b600081359050611d5b81611d35565b92915050565b60008060408385031215611d7857611d77611845565b5b6000611d8685828601611d4c565b925050602083013567ffffffffffffffff811115611da757611da661184a565b5b611db385828601611967565b9150509250929050565b600082825260208201905092915050565b7f4f6e6c7920636f6e7472616374206f776e65722063616e2063616c6c2074686960008201527f732066756e6374696f6e00000000000000000000000000000000000000000000602082015250565b6000611e2a602a83611dbd565b9150611e3582611dce565b604082019050919050565b60006020820190508181036000830152611e5981611e1d565b9050919050565b7f4e487b7100000000000000000000000000000000000000000000000000000000600052602260045260246000fd5b60006002820490506001821680611ea757607f821691505b602082108103611eba57611eb9611e60565b5b50919050565b600081905092915050565b6000611ed682611b85565b611ee08185611ec0565b9350611ef0818560208601611ba1565b80840191505092915050565b6000611f088284611ecb565b915081905092915050565b7f526563697069656e74206973206e6f7420656e726f6c6c656400000000000000600082015250565b6000611f49601983611dbd565b9150611f5482611f13565b602082019050919050565b60006020820190508181036000830152611f7881611f3c565b9050919050565b7f496e73756666696369656e742062616c616e6365000000000000000000000000600082015250565b6000611fb5601483611dbd565b9150611fc082611f7f565b602082019050919050565b60006020820190508181036000830152611fe481611fa8565b9050919050565b7f4e487b7100000000000000000000000000000000000000000000000000000000600052601160045260246000fd5b600061202582611995565b915061203083611995565b925082820390508181111561204857612047611feb565b5b92915050565b600061205982611995565b915061206483611995565b925082820190508082111561207c5761207b611feb565b5b92915050565b7f4163636f756e74206973206e6f7420656e726f6c6c6564000000000000000000600082015250565b60006120b8601783611dbd565b91506120c382612082565b602082019050919050565b600060208201905081810360008301526120e7816120ab565b9050919050565b60008190508160005260206000209050919050565b6000815461211081611e8f565b61211a8186611ec0565b94506001821660008114612135576001811461214a5761217d565b60ff198316865281151582028601935061217d565b612153856120ee565b60005b8381101561217557815481890152600182019150602081019050612156565b838801955050505b50505092915050565b60006121928284612103565b915081905092915050565b7f4e6f206163636f756e7420697320656e726f6c6c65642077697468207468697360008201527f206e616d65000000000000000000000000000000000000000000000000000000602082015250565b60006121f9602583611dbd565b91506122048261219d565b604082019050919050565b60006020820190508181036000830152612228816121ec565b9050919050565b600060ff82169050919050565b60006122478261222f565b91506000820361225a57612259611feb565b5b600182039050919050565b7f4465706f73697420616d6f756e74206d7573742062652067726561746572207460008201527f68616e207a65726f000000000000000000000000000000000000000000000000602082015250565b60006122c1602883611dbd565b91506122cc82612265565b604082019050919050565b600060208201905081810360008301526122f0816122b4565b9050919050565b7f4d6178696d756d20636c69656e74206c696d6974207265616368656400000000600082015250565b600061232d601c83611dbd565b9150612338826122f7565b602082019050919050565b6000602082019050818103600083015261235c81612320565b9050919050565b7f4163636f756e7420697320616c726561647920656e726f6c6c65640000000000600082015250565b6000612399601b83611dbd565b91506123a482612363565b602082019050919050565b600060208201905081810360008301526123c88161238c565b9050919050565b7f4e616d6520697320616c72656164792072656769737465726564000000000000600082015250565b6000612405601a83611dbd565b9150612410826123cf565b602082019050919050565b60006020820190508181036000830152612434816123f8565b9050919050565b60006124468261222f565b915060ff820361245957612458611feb565b5b600182019050919050565b60006020601f8301049050919050565b600082821b905092915050565b6000600883026124b17fffffffffffffffffffffffffffffffffffffffffffffffffffffffffffffffff82612474565b6124bb8683612474565b95508019841693508086168417925050509392505050565b6000819050919050565b60006124f86124f36124ee84611995565b6124d3565b611995565b9050919050565b6000819050919050565b612512836124dd565b61252661251e826124ff565b848454612481565b825550505050565b600090565b61253b61252e565b612546818484612509565b505050565b5b8181101561256a5761255f600082612533565b60018101905061254c565b5050565b601f8211156125af57612580816120ee565b61258984612464565b81016020851015612598578190505b6125ac6125a485612464565b83018261254b565b50505b505050565b600082821c905092915050565b60006125d2600019846008026125b4565b1980831691505092915050565b60006125eb83836125c1565b9150826002028217905092915050565b61260482611b85565b67ffffffffffffffff81111561261d5761261c61186a565b5b6126278254611e8f565b61263282828561256e565b600060209050601f8311600181146126655760008415612653578287015190505b61265d85826125df565b8655506126c5565b601f198416612673866120ee565b60005b8281101561269b57848901518255600182019150602085019450602081019050612676565b868310156126b857848901516126b4601f8916826125c1565b8355505b6001600288020188555050505b505050505050565b60006126d882611b85565b6126e28185611dbd565b93506126f2818560208601611ba1565b6126fb81611859565b840191505092915050565b6000602082019050818103600083015261272081846126cd565b905092915050565b600060408201905061273d6000830185611ad3565b61274a6020830184611ad3565b939250505056fea2646970667358221220cf75ed8836847d14945a7dfda2549d44603fa9bfef5bbc2e17ca1f1a4e59de5664736f6c63430008110033",
  "immutableReferences": {},
  "source": "// SPDX-License-Identifier: MIT\r\npragma solidity ^0.8.17;\r\n\r\ncontract SimpleBank {\r\n    uint8 private clientCount;\r\n    mapping(address => UserInfo) private users;\r\n    mapping(address => bool) private enrolled;\r\n    mapping(string => address) private addressByName; // Reverse mapping of names to addresses\r\n    address public owner;\r\n\r\n    event LogDepositMade(string indexed userName, uint amount);\r\n    event LogWithdrawalMade(string indexed userName, uint amount);\r\n    event LogTransfer(string indexed from, string indexed to, uint amount);\r\n    event LogEnrolled(address indexed accountAddress, string name);\r\n    event LogUnenrolled(string indexed userName);\r\n    event LogTransaction(string indexed from, string indexed to, uint amount, uint timestamp);\r\n\r\n    struct UserInfo {\r\n        string name;\r\n        uint balance;\r\n    }\r\n\r\n    struct Transaction {\r\n        string from;\r\n        string to;\r\n        uint amount;\r\n        uint timestamp;\r\n    }\r\n\r\n    Transaction[] private transactionHistory;\r\n\r\n    modifier onlyOwner() {\r\n        require(msg.sender == owner, \"Only contract owner can call this function\");\r\n        _;\r\n    }\r\n\r\n    constructor() {\r\n        owner = msg.sender;\r\n        clientCount = 0;\r\n    }\r\n\r\n    function addToTransactionHistory(string memory from, string memory to, uint amount) private {\r\n        uint timestamp = block.timestamp;\r\n        Transaction memory transaction = Transaction(from, to, amount, timestamp);\r\n        transactionHistory.push(transaction);\r\n        emit LogTransaction(from, to, amount, timestamp);\r\n    }\r\n\r\n    function enroll(address accountAddress, string memory name) public onlyOwner {\r\n        require(clientCount < 3, \"Maximum client limit reached\");\r\n        require(!enrolled[accountAddress], \"Account is already enrolled\");\r\n        require(addressByName[name] == address(0), \"Name is already registered\");\r\n\r\n        enrolled[accountAddress] = true;\r\n        clientCount++;\r\n        users[accountAddress] = UserInfo(name, 0);\r\n        addressByName[name] = accountAddress;\r\n        emit LogEnrolled(accountAddress, name);\r\n    }\r\n\r\n    function unenroll(string memory name) public onlyOwner {\r\n        require(addressByName[name] != address(0), \"No account is enrolled with this name\");\r\n\r\n        address accountAddress = addressByName[name];\r\n        delete enrolled[accountAddress];\r\n        delete users[accountAddress];\r\n        delete addressByName[name];\r\n        clientCount--;\r\n\r\n        emit LogUnenrolled(name);\r\n    }\r\n\r\n    function deposit(uint amount) public {\r\n    string memory userName = users[msg.sender].name;\r\n    address accountAddress = addressByName[userName];\r\n    require(enrolled[accountAddress], \"Account is not enrolled\");\r\n    require(amount > 0, \"Deposit amount must be greater than zero\");\r\n\r\n    users[accountAddress].balance += amount;\r\n    emit LogDepositMade(userName, amount);\r\n    addToTransactionHistory(userName, userName, amount);\r\n}\r\n\r\n\r\n    function withdraw(uint withdrawAmount) public onlyOwner {\r\n        string memory userName = users[msg.sender].name;\r\n        address accountAddress = addressByName[userName];\r\n        require(enrolled[accountAddress], \"Account is not enrolled\");\r\n        require(withdrawAmount <= users[accountAddress].balance, \"Insufficient balance\");\r\n\r\n        users[accountAddress].balance -= withdrawAmount;\r\n        payable(msg.sender).transfer(withdrawAmount);\r\n\r\n        emit LogWithdrawalMade(userName, withdrawAmount);\r\n        addToTransactionHistory(userName, userName, withdrawAmount);\r\n    }\r\n\r\n    function transfer(string memory to, uint amount) public onlyOwner {\r\n        string memory from = users[msg.sender].name;\r\n        address fromAddress = msg.sender;\r\n        require(addressByName[to] != address(0), \"Recipient is not enrolled\");\r\n        require(amount <= users[fromAddress].balance, \"Insufficient balance\");\r\n\r\n        address toAddress = addressByName[to];\r\n\r\n        users[fromAddress].balance -= amount;\r\n        users[toAddress].balance += amount;\r\n\r\n        emit LogTransfer(from, to, amount);\r\n        addToTransactionHistory(from, to, amount);\r\n    }\r\n\r\n    function balanceOf() public view returns (uint) {\r\n        address accountAddress = addressByName[users[msg.sender].name];\r\n        return users[accountAddress].balance;\r\n    }\r\n\r\n    function totalBalance() public view returns (uint) {\r\n        return address(this).balance;\r\n    }\r\n\r\n    function getOwner() public view returns (address) {\r\n        return owner;\r\n    }\r\n\r\n    function isEnrolled(string memory userName) public view returns (bool) {\r\n        address accountAddress = addressByName[userName];\r\n        return enrolled[accountAddress];\r\n    }\r\n\r\n    function getAddressByName(string memory userName) public view returns (address) {\r\n        return addressByName[userName];\r\n    }\r\n\r\n    function getTransactionHistory() public view returns (Transaction[] memory) {\r\n        return transactionHistory;\r\n    }\r\n}",
  "sourcePath": "C:\\Users\\Kumar sai\\OneDrive\\Desktop\\ML_BLOCKCHAIN\\contracts\\SimpleBank.sol",
  "compiler": {
    "name": "solc",
    "version": "0.8.17+commit.8df45f5f.Emscripten.clang"
  },
  "schemaVersion": "3.4.16",
  "updatedAt": "2024-03-05T19:38:23.339Z",
  "networkType": "ethereum",
  "devdoc": {
    "kind": "dev",
    "methods": {},
    "version": 1
  },
  "userdoc": {
    "kind": "user",
    "methods": {},
    "version": 1
  }
}